:100000000C945D000C9485000C9485000C94850084
:100010000C9485000C9485000C9485000C9485004C
:100020000C9485000C9485000C9485000C9485003C
:100030000C9485000C9485000C9485000C9485002C
:100040000C94A7030C9485000C9475030C944F0337
:100050000C9485000C9485000C9485000C9485000C
:100060000C9485000C94850000000008000201003B
:100070000003040700000000000000000000000072
:10008000250028002B0000000000240027002A0083
:10009000040404040404040402020202020203032E
:1000A0000303030301020408102040800102040836
:1000B0001020010204081020F80411241FBECFEF05
:1000C000D8E0DEBFCDBF11E0A0E0B1E0EEE9FAE09C
:1000D00002C005900D92A831B107D9F721E0A8E13F
:1000E000B1E001C01D92A83CB207E1F710E0CDE5F8
:1000F000D0E004C02197FE010E944705CC35D1070E
:10010000C9F70E94F1030C944D050C94000090E097
:10011000FC01EC55FF4F249180579F4FFC018491C7
:10012000882399F090E0880F991FFC01EA57FF4F50
:10013000A591B491FC01E458FF4F859194918FB73C
:10014000F894EC91E22BEC938FBF0895AF92BF929D
:10015000CF92DF92EF92FF920F931F93CF93DF9393
:100160006C017B018B01040F151FEB015E01AE18C2
:10017000BF08C017D10759F06991D601ED91FC91E4
:100180000190F081E02DC6010995892B79F7C50111
:10019000DF91CF911F910F91FF90EF90DF90CF9063
:1001A000BF90AF900895FC01538D448D252F30E012
:1001B000842F90E0821B930B541710F0CF96089574
:1001C00001970895FC01918D828D981761F0A28DA1
:1001D000AE0FBF2FB11D5D968C91928D9F5F9F7367
:1001E000928F90E008958FEF9FEF0895FC01918D1D
:1001F000828D981731F0828DE80FF11D858D90E08A
:1002000008958FEF9FEF0895FC01918D228D892F26
:1002100090E0805C9F4F821B91098F73992708950E
:100220008BE291E00E94040121E0892B09F420E097
:10023000822F089580E090E0892B29F00E94100120
:1002400081110C9400000895FC01A48DA80FB92F12
:10025000B11DA35ABF4F2C91848D90E001968F73EE
:100260009927848FA689B7892C93A089B1898C910D
:10027000837080648C93938D848D981306C002885C
:10028000F389E02D80818F7D80830895EF92FF9226
:100290000F931F93CF93DF93EC0181E0888F9B8DA9
:1002A0008C8D98131AC0E889F989808185FF15C063
:1002B0009FB7F894EE89FF896083E889F989808186
:1002C0008370806480839FBF81E090E0DF91CF9155
:1002D0001F910F91FF90EF900895F62E0B8D10E077
:1002E0000F5F1F4F0F731127E02E8C8D8E110CC0E6
:1002F0000FB607FCFACFE889F989808185FFF5CF31
:10030000CE010E942401F1CFEB8DEC0FFD2FF11DEA
:10031000E35AFF4FF0829FB7F8940B8FEA89FB896D
:1003200080818062CFCFCF93DF93EC01888D8823CB
:10033000B9F0AA89BB89E889F9898C9185FD03C048
:10034000808186FD0DC00FB607FCF7CF8C9185FF2D
:10035000F2CF808185FFEDCFCE010E942401E9CF4D
:10036000DF91CF91089590E0FC01E859FF4F24916F
:10037000FC01EC55FF4F3491FC01E057FF4FE49135
:10038000EE23C9F0222339F0233001F1A8F4213003
:1003900019F1223029F1F0E0EE0FFF1FE458FF4F72
:1003A000A591B4918FB7F894EC91611126C0309566
:1003B0003E233C938FBF08952730A9F02830C9F021
:1003C000243049F7809180008F7D03C080918000A8
:1003D0008F7780938000DFCF84B58F7784BDDBCFAC
:1003E00084B58F7DFBCF8091B0008F778093B00074
:1003F000D2CF8091B0008F7DF9CF3E2BDACF1F9303
:10040000CF93DF93182FEB010E948700209739F4D8
:1004100060E0812FDF91CF911F910C94B301CF3F0A
:10042000D10511F461E0F5CFE12FF0E0E859FF4F7D
:10043000E491E33031F140F4E130B1F0E230E1F049
:10044000C038D1057CF7E4CFE73029F1E83059F125
:10045000E430B1F780918000806280938000D09377
:100460008B00C0938A0004C084B5806884BDC7BD7A
:10047000DF91CF911F91089584B5806284BDC8BD7E
:10048000F7CF80918000806880938000D0938900AE
:10049000C0938800EDCF8091B00080688093B00059
:1004A000C093B300E5CF8091B00080628093B0002C
:1004B000C093B400DDCF8E50806480937C00809127
:1004C0007A00806480937A0080917A0086FDFCCF68
:1004D000809178009091790008953FB7F8948091C9
:1004E0001D0190911E01A0911F01B091200126B520
:1004F000A89B05C02F3F19F00196A11DB11D3FBF5C
:10050000BA2FA92F982F8827BC01CD01620F711D2A
:10051000811D911D42E0660F771F881F991F4A9524
:10052000D1F708958F929F92AF92BF92CF92DF92B0
:10053000EF92FF920E946D024B015C0185E0C82E94
:10054000D12CE12CF12C0E946D02681979098A09DD
:100550009B09683E734081059105A8F321E0C21A0A
:10056000D108E108F10888EE880E83E0981EA11CEE
:10057000B11CC114D104E104F10429F7FF90EF90FC
:10058000DF90CF90BF90AF909F908F900895FC0127
:1005900001900020E9F73197AF01481B590BBC01CE
:1005A0008BE291E00C94A6008F929F92AF92BF9243
:1005B000CF92DF92EF92FF920F931F93CF93DF932F
:1005C000CDB7DEB7A1970FB6F894DEBF0FBECDBF93
:1005D0006B017C01F7FE41C06DE28BE291E00E946D
:1005E00046018C0122273327A9012C193D094E0908
:1005F0005F0919A2CE0181967C019AE0892E912C87
:10060000A12CB12CCA01B901A50194010E942505B4
:10061000605DF70162937F012115310541055105A8
:1006200089F790E080E0309719F0CF010E94C7026F
:10063000800F911FA1960FB6F894DEBF0FBECDBFFD
:10064000DF91CF911F910F91FF90EF90DF90CF90AE
:10065000BF90AF909F908F900895AC019B0119A21D
:100660008E010F5D1F4F8AE0C82ED12CE12CF12C9A
:10067000CA01B901A70196010E942505605DF80134
:1006800062938F01211531054105510589F790E0ED
:1006900080E0309779F2CF010E94C702CBCF1F9242
:1006A0000F920FB60F9211242F933F934F935F93A6
:1006B0006F937F938F939F93AF93BF93EF93FF932A
:1006C0008BE291E00E942401FF91EF91BF91AF91E5
:1006D0009F918F917F916F915F914F913F912F915A
:1006E0000F900FBE0F901F9018951F920F920FB68C
:1006F0000F9211242F938F939F93EF93FF93E09189
:100700003B01F0913C018081E0914101F091420177
:1007100082FD1BC09081809144018F5F8F73209177
:100720004501821741F0E0914401F0E0E55DFE4FA4
:10073000958F80934401FF91EF919F918F912F911D
:100740000F900FBE0F901F9018958081F4CF1F92CD
:100750000F920FB60F9211242F933F938F939F9375
:10076000AF93BF938091190190911A01A0911B0141
:10077000B0911C013091180123E0230F2D3758F55B
:100780000196A11DB11D209318018093190190932A
:100790001A01A0931B01B0931C0180911D0190913F
:1007A0001E01A0911F01B09120010196A11DB11D54
:1007B00080931D0190931E01A0931F01B09320010F
:1007C000BF91AF919F918F913F912F910F900FBE4D
:1007D0000F901F90189526E8230F0296A11DB11DBA
:1007E000D2CF789484B5826084BD84B5816084BDA5
:1007F00085B5826085BD85B5816085BD80916E00BF
:10080000816080936E0010928100809181008260EF
:10081000809381008091810081608093810080912C
:1008200080008160809380008091B100846080931B
:10083000B1008091B00081608093B00080917A0017
:10084000846080937A0080917A00826080937A003D
:1008500080917A00816080937A0080917A0080682C
:1008600080937A001092C100E0913B01F0913C012D
:1008700082E08083E0913701F09138011082E091AD
:100880003901F0913A018FEC808310924301E0919D
:100890003F01F091400186E08083E0913D01F091BD
:1008A0003E01808180618083E0913D01F0913E01B5
:1008B000808188608083E0913D01F0913E018081DC
:1008C00080688083E0913D01F0913E0180818F7DC1
:1008D000808389E00E9487008AE00E9487008BE085
:1008E0000E948700C0E0D0E08EE00E945B027C01A5
:1008F00080932901F0922A010E9492028FE00E94C7
:100900005B028C0180932701109328010E949202C0
:1009100080E10E945B02B701F7FE02C06D5F7F4F6E
:100920007595679575956795709326016093250178
:10093000980117FF02C02D5F3F4F359527953595DC
:10094000279530932401209323019C0197FF02C037
:100950002D5F3F4F3595279535952795309322018B
:1009600020932101072E000C880B990B0E94D402C2
:1009700082E191E00E94C7026091230170912401FD
:10098000072E000C880B990B0E94D40282E191E0A3
:100990000E94C7026091210170912201072E000C74
:1009A000880B990B0E94D40285E191E00E94C70256
:1009B00060912501709126018AE00E94FF016091FB
:1009C00023017091240189E00E94FF0160912101BF
:1009D000709122018BE00E94FF01209709F484CFDF
:1009E0000E941001882309F47FCF0E9400007CCF71
:1009F000EBE2F1E01382128288EE93E0A0E0B0E037
:100A000084839583A683B78384E091E09183808378
:100A100085EC90E09587848784EC90E097878687C3
:100A200080EC90E0918B808B81EC90E0938B828BBB
:100A300082EC90E0958B848B86EC90E0978B868B94
:100A4000118E128E138E148E0895A1E21A2EAA1BF7
:100A5000BB1BFD010DC0AA1FBB1FEE1FFF1FA2176E
:100A6000B307E407F50720F0A21BB30BE40BF50B6B
:100A7000661F771F881F991F1A9469F760957095F4
:100A8000809590959B01AC01BD01CF010895EE0FBB
:0E0A9000FF1F0590F491E02D0994F894FFCF1C
:100A9E00000000004601A600D30093010401E2000D
:080AAE00F6002C20000D0A00E7
:00000001FF
